:020000040800F2
:1000000080060020450100087F1900080718000835
:100010007D190008610900088D1B00080000000020
:10002000000000000000000000000000831900082C
:100030006309000800000000811900088519000804
:100040005F0100085F0100085F0100085F01000810
:100050005F0100085F0100085F0100085F01000800
:100060005F0100085F0100085F0100085F010008F0
:100070005F0100085F0100085F0100085F010008E0
:100080005F0100085F0100085F0100085F010008D0
:100090005F0100085F0100085F0100085F010008C0
:1000A0005F0100085F0100085F0100085F010008B0
:1000B0005F0100085F0100085F0100085F010008A0
:1000C0005F0100085F0100085F0100085F01000890
:1000D0005F0100085F0100085F0100085F01000880
:1000E0005F0100085F0100085F0100085F01000870
:1000F0005F0100085F0100085F0100085F01000860
:100100005F0100085F0100085F0100085F0100084F
:100110005F0100085F010008D91900085F010008AD
:100120005F0100085F0100085F0100085F0100082F
:10013000DFF80CD000F0D6FB00480047513600082D
:10014000800600200648804706480047FEE7FEE795
:10015000FEE7FEE7FEE7FEE7FEE7FEE7FEE7FEE777
:10016000D719000831010008202A04DB203A21FABF
:1001700002F00021704721FA02F3D040C2F12002C0
:100180009140084319467047D2B201E000F8012BB4
:10019000491EFBD270470022F6E710B513460A4607
:1001A00004461946FFF7F0FF204610BD421C10F828
:1001B000011B0029FBD1801A704780EA010210B5AB
:1001C00002F00043400022D04A001FD0010E01EB94
:1001D0001261C0F35600C2F3560240F4000042F42C
:1001E0000002A0FB022000047F39140400D0401C50
:1001F00050EA124001D44000491EC2B20C0604EB82
:10020000D010401C4008802A02D003E0002010BD1E
:1002100020F00100002900DA0020184310BD2DE96C
:10022000FE4F804681EA0300C00F0C46009021F08B
:10023000004123F00045B8EB0200A94105D2404639
:10024000214690461C460B46024623F000401043D0
:1002500047D0270DC7F30A00C3F30A510290401A92
:10026000019040286BDAC3F3130040F4801B009820
:10027000924620B10023D2EB030A63EB0B0B0198EB
:100280005946C0F14002504600F00DFA06460D46B0
:1002900050465946019A00F015FA10EB08006141EA
:1002A000002487EA115284EAE7731A4340D0009A87
:1002B00062B3019A012A4FEA075215DC001B61EB79
:1002C00002014FF0004202EA0752CDE90042001C51
:1002D00041F5801132462B4600F04CFA03B0BDE8E0
:1002E000F08F40462146F9E7001B61EB0201001C3C
:1002F00041F5801300185B412018A2F5001747EB69
:10030000030140EAD570B6196D4111E06D084FEA5E
:10031000360645EAC0754FEA0752001B61EB020141
:10032000001C41F5801149084FEA30000019514185
:1003300032462B4603B0BDE8F04F00F00CBA0098EF
:10034000012240000023D0EB020263EBE07300982F
:1003500021464FEAE074B8EB000061EB0401E9E7E5
:1003600083F000435BE781F0004158E72DE9FE4F41
:1003700081EA030404F0004421F0004100944FF0AE
:10038000000B23F0004350EA01045ED052EA03045C
:100390005BD0C3F30A54C1F30A552C44A4F2F334DE
:1003A0000194A0FB0254C1F3130141F48011C3F383
:1003B000130343F4801301FB024400FB034E840A41
:1003C000970A44EA815447EA8357A4FB07680295D9
:1003D0008D0A05FB07854FEA932C04FB0C54270577
:1003E000029D4FEA065847EA1637B5EB08056EEB53
:1003F000070C870E920E47EA811742EA8312A7FB89
:100400000201B6EB0B0164EB00042B0D43EA0C3345
:100410005E1844EB1C50DA465146E7FB0201C5F377
:1004200013044FEA0B3343EA14534FEA0432019C9E
:1004300043EA0603A4F10C040294009CCDE900B445
:1004400000F098F903B0BDE8F08F00200146F9E70D
:100450002DE9F04D81EA030404F0004B21F0004542
:1004600014464FF0000A23F0004150EA050220D064
:1004700054EA01021DD0C5F30A570246C5F313031F
:10048000C1F31300C1F30A5640F4801543F48013FE
:10049000A7EB0608101BD64608F2FD3873EB0500E3
:1004A00002D308F1010801E092185B41B8F1000F96
:1004B00003DA00200146BDE8F08D00204FF48011E2
:1004C000064684460EE0171B73EB050705D3121B87
:1004D00063EB050306434CEA010C49084FEA300080
:1004E00092185B4150EA0107EDD152EA030012D0A5
:1004F00082EA040083EA0501084305D0101BAB41E2
:1005000006D20122002306E000224FF0004302E061
:100510006FF0010253101AEB06004CEB085110EB80
:100520000A0041EB0B01BDE8F04D00F014B970B5C5
:1005300021F0004303430CD0C1F30A550024D5EB4E
:10054000040564EB0403D617AD1AB34102DB0020A7
:10055000014670BD201841EB025170BDC10F80EA09
:10056000E0700844CA079623002100F0C6B80EB513
:10057000C10F80EAE0700844CA07002140F233430B
:100580008DE80E000A460B4600F0F4F803B000BDFB
:1005900000F0004230F000400AD0C10D01F560715A
:1005A000C0F3160042EA0151C208400711437047E8
:1005B000002001467047000030B5041E71F10004B0
:1005C00004DB4FF00044404264EB0101141E73F160
:1005D000000405DB1C464FF00043524263EB04036A
:1005E0008B4208BF824230BD30B5041E71F1000459
:1005F00004DB4FF00044404264EB0101141E73F130
:10060000000405DB1C464FF00043524263EB040339
:10061000994208BF904230BD30B50B4601460020DC
:100620002022012409E021FA02F59D4205D303FAB4
:1006300002F5491B04FA02F52844151EA2F1010235
:10064000F1DC30BD2DE9F05F0546002092469B4667
:1006500088460646814640241BE0284641464746D8
:100660002246FFF781FD53465A46C01A914110D3E6
:1006700011461846224600F016F82D1A67EB0108BD
:100680004F4622460120002100F00DF817EB00092B
:100690004E41201EA4F10104DFDC484631462A46C3
:1006A0004346BDE8F09F202A04DB203A00FA02F11D
:1006B000002070479140C2F1200320FA03F3194350
:1006C00090407047202A06DBCB17203A41FA02F00F
:1006D00043EAE07306E041FA02F3D040C2F120029F
:1006E00091400843194670470029A8BF7047401C35
:1006F000490008BF20F00100704710B4B0FA80FC38
:1007000000FA0CF050EA010404BF10BC704749B174
:10071000CCF1200421FA04F411FA0CF118BF0121E4
:1007200021430843A3EB0C01CB1D4FEA00614FEAC4
:10073000102042BF002010BC704700EBC350104493
:100740000029A4BF10BC7047401C490008BF20F01E
:10075000010010BC704710B5141E73F1000408DAD4
:10076000401C41F1000192185B411A4301D120F075
:10077000010010BD2DE9F04D92469B4611B1B1FA32
:1007800081F202E0B0FA80F220329046FFF78BFF50
:1007900004460F4640EA0A0041EA0B0153465A4616
:1007A000084313D0114653EA010019D0C8F14002A2
:1007B0005046FFF7D9FC05460E465046594642467C
:1007C000FFF771FF084305D0012004E020463946B9
:1007D000BDE8F08D0020054346EAE0762C43374320
:1007E0000A986305E40AA0EB08000022FD0A44EA27
:1007F00047540A3002D500200146E9E701051019E7
:100800006941DDE9084500196941BDE8F04DA2E7FD
:100810002DE9F04D00231A461B1A8A4103DB002004
:100820000146BDE8F08DC1F30A52C1F3130141F452
:1008300080154FF0000BD10702D100186D41521EF8
:100840000027044640F2FF11384601EB620A3E469B
:100850008046024600204FF48011FFF785FCC21944
:100860007141BB1846EB0100B4EB030C75EB000CB7
:1008700004D3E41A65EB000517460E46241908F167
:1008800001006D4180463428E3DDF91946EB06008E
:10089000091BA84103D24FF0FF32134601E00022AA
:1008A00013461BEB070046EB0A51BDE8F04DFFF77E
:1008B00052BFC1F30A52C1F3130140F2FF3341F4B6
:1008C00080119A4202DA00200146704740F2334319
:1008D0009A42A2F2334202DC5242FFF745BCFFF7D4
:1008E000E2BE0000064C074D06E0E06840F0010360
:1008F00094E8070098471034AC42F6D3FFF71CFC8D
:10090000B03C0008D03C00080EB540F233410291E3
:100910000021CDE900110A460B46FFF72BFF03B07B
:1009200000BD70B5C1F30A5201F000450024C1F3C7
:10093000130140F2FF3341F480119A4201DA0020A2
:1009400070BD40F233439A42A2F2334203DC52427A
:10095000FFF70AFC00E090402C43F1D0404270BD0C
:10096000FEE770477047000070B5044600F00AF9D2
:100970000546601C02D004480078044400F002F9E7
:10098000401BA042FAD370BD040000202DE9F84FAF
:10099000DFF8C891002409F1040A0AF1040B234688
:1009A0000F270BF1040ED1E00125A54006EA050250
:1009B000AA4276D1DFF8A8C14E68A6EB0C086645BE
:1009C0002BD00DDC032E34D005DC36B3012E19D02C
:1009D000022E2FD11BE0112E16D0122E2AD119E093
:1009E000B8F5881F19D006DCB8F5803F15D0B8F5EA
:1009F000801F1FD111E0B8F5001F0ED0B8F5041FFD
:100A000018D10AE0CB6815E0CB681B1D12E0CB685B
:100A100008330FE0CB680C330CE08B682BB1012B53
:100A20004FF0080303D0456104E0042302E00561B0
:100A300000E00023FF2A01D8064601E000F1040689
:100A40004FEA840501D9A5F12005D6F8008007FA00
:100A500005FC28EA0C0803FA05F548EA0508C6F87B
:100A600000804D68ED0070D53E4DAE6946F0010640
:100A7000AE61AD6924F0030605F0010500953A4D1D
:100A800006EB050CDCF80850A607360F07FA06F847
:100A900025EA0805DFF8D480404503D14FF000086F
:100AA00025E052E0DFF8C880404502D14FF0010850
:100AB0001DE0DFF8C080404502D14FF0020816E08B
:100AC000DFF8B480404502D14FF003080FE0DFF8B3
:100AD000AC80404502D14FF0040808E0DFF8A08068
:100AE000404502D14FF0050801E04FF0060808FA32
:100AF00006F848EA0508CCF808804D68D9F8006087
:100B0000ED034D4601D5164300E096432E604D6837
:100B1000DAF80060AD03554601D5164300E0964370
:100B20002E604D68DBF80060ED025D4601D516438E
:100B300000E096432E604D68DEF80060AD02754619
:100B400001D5164300E096432E60641C0A681646E1
:100B5000E2407FF429AFBDE8F88F000000040140B7
:100B60000000111000100240000001400008014088
:100B7000000C014000100140001401400018014029
:100B8000001C0140014880687047000004000020FC
:100B90000248816802781144816070470400002097
:100BA000074810B5016841F010010160032000F012
:100BB00075F8002000F006F800F024F8002010BDC1
:100BC0000020024070B50D4D04464FF47A7128782C
:100BD000B1FBF0F00A490968B1FBF0F000F0ECFA63
:100BE00048B9102C07D200222146501E00F036F8DA
:100BF00000206C6070BD012070BD0000040000206A
:100C0000100000200C4808B5816941F001018161A4
:100C1000816901F001010091C16941F08051C16118
:100C2000C06900F0805000900448416821F0E06104
:100C300041F00071416008BD001002400000014019
:100C4000002809DB00F01F020121914040098000CB
:100C500000F1E020C0F8001170470000F0B40E4B26
:100C60001B680C46C3F30223C3F10705042D00D90A
:100C70000425191D072901D2002300E0DB1E0126EF
:100C800006FA05F1491E214099409E40761E164005
:100C90003143F0BC00F0A4BF0CED00E0064900F0C9
:100CA000070208684FF6FF03184040EA0220034A93
:100CB00010430860704700000CED00E00000FA05EA
:100CC0002DE9F0470F46050061D0434E306800F033
:100CD0000700B84209D2306820F00700384330607E
:100CE000306800F00700B84251D128683B4C8107BA
:100CF00012D5400703D5606840F4E0606060287852
:100D0000000703D5606840F4605060606068A968BF
:100D100020F0F000084360602878C00728D0686899
:100D2000012810D02168022810D0890700292EDA66
:100D3000616821F0030101436160FFF723FF8046F2
:100D400041F288390DE021688903EFE78901EDE779
:100D5000FFF718FFA0EB0801494502D90320BDE8C1
:100D6000F0876068696800F00C00B0EB810FEFD18C
:100D7000306800F00700B8420BD9306820F0070057
:100D800038433060306800F00700B84201D00120DD
:100D9000E5E72878400705D56068E96820F4E06059
:100DA000084360602878000706D56068296920F448
:100DB000605040EAC100606000F038F86168084A9D
:100DC000C1F30311515CC840064908600648006839
:100DD000FFF7F8FE0020C2E70020024000100240AA
:100DE000903A00081000002008000020044805493F
:100DF00000684968044AC1F30221515CC840704749
:100E00001000002000100240A03A000804480549E4
:100E100000684968044AC1F3C221515CC840704768
:100E20001000002000100240A03A000812A185B076
:100E30000FC98DE80F0014A0144A0068049051688F
:100E4000134801F00C03042B10D0082B0ED1C1F372
:100E50008343C9031DF803000AD5516804AAC1F3EE
:100E60004041515C0A4A5043B0FBF1F005B0704775
:100E700008494843FAE70000020304050607080989
:100E80000A0B0C0D0E0F10100102000000100240A2
:100E900000127A0000093D002DE9F84F040070D0DF
:100EA0002078C04DC00749D06868C0F38100012890
:100EB00007D06868C0F38100022809D16868C003C0
:100EC00006D52868800339D560680028E7D035E06A
:100ED0006068B0F5803F0BD010B1B0F5A02F11D0F5
:100EE000286820F480302860286820F4802002E000
:100EF000286840F480302860606890B1FFF742FEB7
:100F000006460AE0286840F480202860F0E700BF29
:100F1000FFF738FE801B642873D828688003F7D554
:100F20000CE0FFF72FFE064605E000BFFFF72AFEA4
:100F3000801B6428F0D828688003F7D420789A4E64
:100F400080074FF001094FF0000839D5686810F0AC
:100F50000C0F07D06868C0F38100022809D16868C7
:100F6000C00306D42868800714D52069012808D159
:100F700010E02069B0B1C6F80090FFF703FE074605
:100F800005E00AE1FFF7FEFDC01B0228C4D828686F
:100F90008007F7D52868616920F0F80040EAC100B1
:100FA00028600DE0C6F80080FFF7ECFD074604E07E
:100FB000FFF7E8FDC01B022823D828688007F7D474
:100FC000207800072CD57948A169D9B1C0F80090E4
:100FD000FFF7D8FD074604E0FFF7D4FDC01B022849
:100FE0000FD8686A8007F7D571484FF4FA51006846
:100FF000B0FBF1F0009000BF0098411E0091FAD2C2
:101000000EE080E0C0F80080FFF7BCFD074604E07A
:10101000FFF7B8FDC01B022875D8686A8007F7D4AF
:101020002078400760D5E8690027C00008D4E86947
:1010300040F08050E861E869012700F0805000909E
:101040005C480168C90513D40168834641F4807186
:101050000160FFF797FD824606E000BFFFF792FDB3
:10106000A0EB0A0064284ED8DBF80000C005F5D5D7
:10107000E06801280AD008B1052813D0286A20F0BA
:1010800001002862286A20F0040002E0286A40F08B
:1010900001002862E06841F2883B98B1FFF772FDD9
:1010A00082460BE0286A40F004002862EEE700BFA9
:1010B000FFF768FDA0EB0A0159455AD8286A800756
:1010C000F6D50CE0FFF75EFD824605E0FFF75AFD1E
:1010D000A0EB0A0159454CD8286A8007F6D41FB105
:1010E000E86920F08050E861E06988B36968C1F37D
:1010F0008101022944D00228C6F8608004D0FFF79D
:1011000041FD044638E034E0FFF73CFD074604E0CB
:10111000FFF738FDC01B02282BD828688001F7D4C0
:10112000206AB0F5803F05D16868A16820F40030DE
:1011300008436860D4E908010843696821F4741120
:1011400008436860C6F86090FFF71CFD044606E09F
:1011500025E000BFFFF716FD001B022809D828680C
:101160008001F7D51BE000BFFFF70CFD001B022834
:1011700002D90320BDE8F88F28688001F4D40EE07E
:101180000128F7D06868226A00F48031914204D1C6
:10119000616A00F47010884201D00120EAE7002063
:1011A000E8E7000000100240000042428004424292
:1011B000100000200070004010B5401EB0F1807F8C
:1011C00001D3012010BD4FF0E02460610F216017B2
:1011D00000F006FD0020A06107202061002010BD66
:1011E0007047704770B590F83C20012A2CD001243C
:1011F00080F83C40022280F83D2003685A689D68D0
:1012000022F070060A6832435A60104B02689A4214
:101210000ED00F4B9A420BD0B2F1804F08D00D4B3D
:101220009A4205D00C4B9A4202D00C4B9A4204D100
:10123000496825F080031943916080F83D40002102
:1012400080F83C10084670BD022070BD002C0140A3
:10125000003401400004004000080040000C004041
:1012600010B5040003D094F83D0010B107E0012050
:1012700010BD002084F83C00204600F01FF802203A
:1012800084F83D00211D206800F0ACFB012084F8AB
:10129000460084F83E0084F83F0084F8400084F85B
:1012A000410084F8420084F8430084F8440084F844
:1012B000450084F83D00002010BD000008B500681E
:1012C0000B49884212D10B48C16941F01001C1613C
:1012D000C069002200F01000009011463620FFF790
:1012E000BDFCBDE808403620FFF7AABC08BD0000E1
:1012F000001000400010024090F83D10012901D07C
:1013000001207047022180F83D100168CA6842F050
:101310000102CA6000680E4988420ED00D49884219
:101320000BD0B0F1804F08D00B49884205D00B4953
:10133000884202D00A49884204D1816801F007013D
:10134000062903D0016841F00101016000207047C7
:10135000002C01400034014000040040000800401F
:10136000000C0040704770B50446006801694FF0FA
:101370000005C943890715D4C168C943890711D439
:10138000E91E0161012020772068806980072046DE
:1013900002D0FFF7E7FF04E000F098F8204600F0E5
:1013A00096F8257720680169C943490717D4C168B1
:1013B000C943490713D46FF004010161022020776B
:1013C0002068806910F4407F204602D0FFF7CAFFF2
:1013D00004E000F07BF8204600F079F825772068DB
:1013E0000169C943090716D4C168C943090712D462
:1013F0006FF008010161042020772068C069800730
:10140000204602D0FFF7AEFF04E000F05FF8204670
:1014100000F05DF8257720680169C943C90617D433
:10142000C168C943C90613D46FF0100101610820D7
:1014300020772068C06910F4407F204602D0FFF773
:1014400091FF04E000F042F8204600F040F82577D4
:1014500020680169C943C90708D1C168C943C907E0
:1014600004D1891E0161204600F032F8206801692C
:10147000C943090609D4C168C943090605D46FF0F8
:10148000800101612046FFF7ABFE20680169C94376
:10149000490609D4C168C943490605D46FF0400123
:1014A0000161204600F088F820680169C943890677
:1014B0000BD4C168C943890607D46FF020010161CC
:1014C0002046BDE87040FFF78CBE70BD7047704786
:1014D0007CB52A492A4C88424ED12A480068FFF739
:1014E00046F8294A294BFEF741FFD4E90023FEF7CD
:1014F00096FEC4E90001064625480D460068FFF740
:1015000036F832462B46FFF757F802D80020C4E9D8
:10151000000002F02FF901F0A3FD1E48D0E90010F1
:10152000CDE900101C481DA1D0E900231D4800F0A2
:101530002FFB1C48FEF73AFE82B2FF2319491A48D6
:1015400000F008F91948D0E90010CDE9001018485A
:1015500012A1D0E9002313481430044600F018FB10
:101560002046FEF723FE02B02146BDE8704082B25D
:10157000FF23104800F0EEB87CBD000024010020DD
:101580004800002000000020FCA9F1D24D62503F2D
:1015900030000020980000209000002025662C25B7
:1015A000660D0A00D4000020B0010020A800002031
:1015B000A0000020F4010020704770B5040004D0A2
:1015C00094F83D00002510B106E0012070BD84F8BC
:1015D0003C50204600F022F8242084F83D0020688A
:1015E000C16821F40051C160204600F041FA206832
:1015F000016921F4904101612068416921F02A01CB
:1016000041612068C16841F40051C1602564202017
:1016100084F83D0084F83E00002070BDF0B585B030
:101620000024009401940294039403684248414EBC
:10163000051502210322C714B34213D1C36943F431
:101640000023C361C36903F400230493836943F057
:10165000100383618069CDE9005100F010006946F4
:10166000364D5CE0DFF8D8C0364E63451ED1836945
:1016700043F480438361836903F480430493836963
:1016800043F0040383618069039200F00400049036
:101690007015CDE9000169463046FFF777F9CDE9CD
:1016A000005422E0FFF772F905B0F0BDDFF898C0F2
:1016B00063451ED1C36943F40033C361C36903F4B6
:1016C00000330493836943F00403836180690392C8
:1016D00000F0040004900420CDE900016946304682
:1016E000FFF754F90820CDE900046946304602941A
:1016F000D8E7164EB342D7D1C36943F48023C36100
:10170000C36903F480230493836943F0080383616E
:101710008069CDE900510E4D00F008006946CDE921
:1017200003202846FFF732F9CDE9007469462846C0
:101730000294B7E7004C0040001002400010014046
:1017400000380140000801400044004000480040CB
:10175000000C01402DE9F843044690F83D001F4677
:1017600016460D4620284CD1C5B1BEB194F83C00B8
:10177000012846D0012084F83C004FF00008C4F84E
:101780004080212084F83D00FFF7FCF9A6848146C3
:10179000E684A068B0F5805F03D004E00120BDE8D6
:1017A000F883206928B12E465FF0000584F83C805C
:1017B0000EE00026FAE78021204600F0B5F9A0B936
:1017C000AEB116F8010B21684860E08C401EE08441
:1017D000E08C4B464FF0000200970028EBD14FF011
:1017E0004001204600F0A0F930B10320D7E735F8DA
:1017F000020BC0F30800E6E7202084F83D0000203B
:10180000CDE70220CBE7FEE7114808B5816941F03A
:1018100020018161816901F020010091816941F01D
:1018200004018161816901F004010091816941F045
:1018300008018161816901F008010091816941F02D
:1018400010018161806900F01000009008BD000067
:10185000001002401CB500240F4800940D4901946B
:1018600001604721C0E9011441F28731C160802144
:101870008161FFF7F5FC08B1FFF774F80094694641
:1018800005480194FFF7AEFC002801D0FFF76AF885
:101890001CBD000000100040240100200C4810B5C1
:1018A0000A4901604FF4E1314160002181600C225E
:1018B000C160C0E904128161C161FFF77EFE0028AA
:1018C00003D0BDE81040FFF74DB810BD004C0040FC
:1018D0006C0100200C4810B50A4901604FF4E13159
:1018E0004160002181600C22C160C0E90412816165
:1018F000C161FFF762FE002803D0BDE81040FFF78A
:1019000031B810BD00380140B00100200C4810B5BE
:101910000A4901604FF4E1314160002181600C22ED
:10192000C160C0E904128161C161FFF746FE002871
:1019300003D0BDE81040FFF715B810BD00440040CB
:10194000F40100200C4810B50A4901604FF4E13160
:101950004160002181600C22C160C0E904128161F4
:10196000C161FFF72AFE002803D0BDE81040FEF752
:10197000F9BF10BD0048004038020020FEE7704764
:1019800070477047FFF704B930B58FB0282168461B
:10199000FEF701FC14210AA8FEF7FDFB0121080453
:1019A000CDE900100024029402250491CDE90750EE
:1019B0004FF4E01009906846FFF76EFA0F20CDE96A
:1019C0000A056802CDE90C4002210AA80E94FFF72F
:1019D00077F90FB030BD70470148FFF7C4BC000075
:1019E00024010020F0B502681C4B1D4D1D4E1E4FFA
:1019F0001E4C4FF0804C984209D0A04207D0604561
:101A000005D0A84203D0B04201D0B84204D122F0A0
:101A1000700E4A6842EA0E02984209D0A04207D0EE
:101A2000604505D0A84203D0B04201D0B84203D1EE
:101A300022F44075CA682A434D6922F080022A4385
:101A400002608A68C2620A688262984201D0A0423B
:101A500001D10969016301214161F0BD002C014000
:101A60000004004000080040000C00400034014029
:101A700070B5044600680169E26821F440511143E1
:101A800001612169A0680843616908432168CA6847
:101A900041F20C639A430243CA6020684169A2691B
:101AA00021F44071114341611E492068884202D1EE
:101AB000FFF7ACF901E0FFF799F900EBC00101EB8A
:101AC0000012606864218000B2FBF0F3B3FBF1F315
:101AD0006FF018067343B2FBF0F5B2FBF0F605EBBE
:101AE0008305322303EB0515B5FBF1F5B6FBF1F6E3
:101AF00005F0F00505EB0615B2FBF0F6B2FBF0F0D1
:101B0000B0FBF1F06FF01802504306EB800003EBDE
:101B10000010B0FBF1F0216800F00F00284488604D
:101B200070BD0000003801402DE9F041984617468D
:101B30000E460446069D1DE0681C1BD02DB1FFF724
:101B400021F8A0EB0800A84214D92068C16821F44C
:101B5000D071C1602068416921F0010141612020FC
:101B600084F83D0084F83E00002084F83C00032007
:101B7000BDE8F0812068006836EA000004D000204B
:101B8000B842D9D00020F3E70120F9E7FEE70000D2
:101B90000FB4084B10B504A902AA039800F028FC62
:101BA000044602A9002000F0BAFF204610BC5DF8F0
:101BB00014FB00001F2B0008490050EAC12018BF89
:101BC00004204A0D18BF40F0010040F2FF72B2EB52
:101BD000515F08BF40F00200012808BF0520704790
:101BE0000907090E002804DB00F1E02080F800144A
:101BF000704700F00F0000F1E02080F8141D7047DE
:101C00002DE9F74F144694B00021C4E9021115994B
:101C1000079121F00045C9498D4206DC1599C4E9B8
:101C2000000117B00020BDE8F08FC549DFF814A30C
:101C3000A9423CDD0799C44E0029C44FC44A1599F6
:101C4000534619DDFEF78CFB554506D0C14AC24B01
:101C5000FEF786FBC4E900010AE04FF0D352BE4B09
:101C6000FEF77EFB32463B46FEF77AFBC4E90001F5
:101C700017B00120BDE8F08FFEF7D1FA554506D028
:101C8000B44AB54BFEF7CBFAC4E900010AE04FF0C5
:101C9000D352B14BFEF7C3FA32463B46FEF7BFFACA
:101CA000C4E9000117B04FF0FF30BDE8F08FAB4939
:101CB000A942159978DB21F0004183468846A84A5D
:101CC000A84BFEF753FB0022A74BFEF7A8FAFEF73E
:101CD00028FE0990FEF74BFC06460F469C4A5346E9
:101CE000FEF744FB43465A46FEF73DFB80468A46D4
:101CF000984A994B30463946FEF738FB2A0D0125A4
:101D00000B9242465346FEF72EFB032DC4E9000119
:101D100039D00B98C1F30A51401A05EB451111391E
:101D2000814230DA9148C346784400EB0510CDF883
:101D30000CA00C90D0E9002330463946FEF716FB84
:101D400002460B460491069058460399FEF708FB9D
:101D500080468A4602460B4658460399FEF700FB2A
:101D6000049B069AFEF7FCFA83460C9803913946C9
:101D7000D0E902233046FEF7F9FA5A46039BFEF7F4
:101D8000EFFA6D1CBDE707980028A2BF099817B0AD
:101D9000BDE8F08F616881F000416160099817B07B
:101DA0004042BDE8F08FFFE784461598C1F3130168
:101DB000C0F30A50A0F2F5304FEA601800F01F0699
:101DC000C6F12000139000200690079041F4801E79
:101DD00005206D4676B1664A08EB00017A4452F858
:101DE000213002EB8101B3404A68139922FA01F1D4
:101DF000194305E05F4908EB0002794451F82210CD
:101E0000A1FB0E27A1FB0C131A449A4234BF0123F5
:101E1000002303EB070A05EB8003D3E901B70F4466
:101E20008F4234BF0121002193448B4411B193456B
:101E300002D903E0934501D2012100E00021C3E96A
:101E400001B7514445F82010011EA0F10100C1DC8A
:101E50000298059F00F10050800F12900298DDE972
:101E600003568000FEF783FB834628460D91FEF75C
:101E70004BFD6FF01D02FEF75AFBCDE90E01304617
:101E8000FEF742FD6FF03D02FEF751FB80468A46A9
:101E90003846FEF739FD6FF05D02FEF748FB074656
:101EA000424653461191FEF7BAF9DDE90E23FEF7DB
:101EB000B6F95A460D9BFEF7B2F900250E465A4672
:101EC00028460D9BFEF74CFADDE90E23FEF748FA93
:101ED00042465346FEF744FA3A46119BFEF743FA50
:101EE000DFF898A0244A5346FEF740FA0746884692
:101EF000234A244B31462846FEF738FA3A464346F1
:101F0000FEF78DF9074688464FF0A8425346314602
:101F10002846FEF72BFA3A464346FEF780F9159A13
:101F200012F0004F04D0129A81F0004152421292F6
:101F3000C4E90001129817B0BDE8F08FFB21E93F1A
:101F40007CD90240FB21F93F7370032E8A19A33B11
:101F5000000040543163621A61B4D03DFB21394125
:101F600083C8C96D305FE43F0000E03F941E00006D
:101F7000101E0000F21D0000182D4454FB21F93DF5
:101F80003326A611460B113C2DE9FF4D21F00048E8
:101F900007460C46B8F1795F08DAFEF7C2FC002864
:101FA00001BF0020324904B0BDE8F08D3A46234617
:101FB00010461946FEF7DAF9054602462D480E4648
:101FC0000B460621784400F05DF82A463346FEF7BA
:101FD000CDF9DDE9022382468B4638462146FEF7DD
:101FE000C5F904460F4652465B4628463146FEF781
:101FF000BDF922463B46FEF7B3F907468A464FF045
:10200000FF3228463146FEF792FA1B4A90450ADA1B
:102010003A465346FEF7A4F904B00022BDE8F04D5D
:10202000134BFEF7A0B9154A4245A8BFA8F5001505
:102030004FF00004B8BF124D22462B46FEF790F930
:102040000646884622462B4600200949FEF788F9B5
:1020500004460D463A46534630464146FEF780F95F
:1020600004B022462B46BDE8F04DFEF77CB90000D7
:102070000000F03FC81B00003333D33F0000E93FAE
:102080000000D23F2DE9F0414F1E00EBC70104468E
:10209000D1E9000115461E4637F006020DD02A464A
:1020A0003346FEF763F97F1E04EBC703D3E9002331
:1020B000FEF7B5F837F00602F1D1022F25D0042F34
:1020C00013D0062F18BFBDE8F0812A463346FEF72D
:1020D0004DF9D4E90A23FEF7A2F82A463346FEF763
:1020E00045F9D4E90823FEF79AF82A463346FEF765
:1020F0003DF9D4E90623FEF792F82A463346FEF767
:1021000035F9D4E90423FEF78AF82A463346FEF768
:102110002DF9D4E90223FEF782F82A463346FEF76A
:1021200025F9D4E90023BDE8F041FEF778B80000B6
:102130002DE9FF4D054621F0004084B00C46B0F17A
:10214000795F0BDA2846FFF737FD042808BF00F057
:102150006FF8284608B02146BDE8F08D2A460B46A8
:102160001046FEF703F906460F462A462346FEF7B9
:10217000FDF8804626488A4632463B46052178448B
:10218000FFF780FF83461098029160B3214A224BEB
:1021900040465146FEF7EAF8CDE900015A4640466E
:1021A0005146029BFEF7E2F882468846DDE90601C9
:1021B0004FF0FF32FEF7BBF952464346FEF7D0F828
:1021C00032463B46FEF7D2F8DDE90623FEF7C8F8B3
:1021D000DDE90023FEF7C4F808B02A462346BDE82F
:1021E000F04DFEF7C0B80B465A4630463946FEF76A
:1021F000BDF8084A084BFEF712F842465346FEF770
:10220000B5F808B02A462346BDE8F04DFEF707B8FA
:10221000061B0000495555555555C5BF0122FEF70F
:1022200086B90022134610461146FEF711B9000088
:10223000024A00201107FEF77AB9000001FDFFFFF6
:1022400002E008C8121F08C1002AFAD1704770477F
:10225000002001E001C1121F002AFBD170470000DD
:102260000149086070470000D00000202DE9FF5FA1
:1022700082B00021DDE90430020DDDF840B00343F7
:1022800018D044F61050A2F2FF32424315141198B0
:1022900001281FD0A5EB0B00401C5FEA000A4FF09D
:1022A00000064E4FDFF83891B046504615D5CAF1BA
:1022B000000413E0119801244AA3012801D16FEA18
:1022C0000B010298119AC0E90031C0E9024206B040
:1022D000BDE8F09FCBF10000DFE704460021404A53
:1022E000491842EB0450CDE9001012E0E00707D096
:1022F00032463B4640464946FEF738F88046894616
:1023000032463B4610461946FEF730F806460F4661
:102310006410002CEAD1DDE90401DDE90023BAF103
:10232000000F06DAFEF722F842464B46FEF71EF88B
:1023300005E0FEF78DF842464B46FEF789F8044665
:102340000E460022284BFEF74FF903D84FF0FF301E
:10235000014607E00022254B20463146FDF75FFF8E
:10236000FEF7A7FA102409E0002C0ADB0A2200235A
:10237000FEF768F9039B30321A55641E50EA0102D9
:10238000F2D1641C039AC4F111031444119A012A76
:1023900003D0012208430DD10AE0084304D00020F5
:1023A0004FF0110B119072E7A3EB0B056D1E0DE0C2
:1023B0005B4504DD4FF0000205F1010504E003DA9E
:1023C0004FF00002A5F10105002AECD00298119906
:1023D000C0E90231C0E9004579E70000000014407F
:1023E0000000F03F300000000000F0430000E03F3C
:1023F0002DE9FF4F95B09B468946064600250FE222
:10240000252877D100242746F84A0121059400E0C9
:10241000044316F8013F203B01FA03F01042F7D1C4
:1024200030782A2811D06FF02F033078A0F13002D5
:10243000092A16D8059A44F0020402EB820203EB43
:1024400042021044761C0590EFE759F8042B0592E0
:10245000002A03DA504244F40054059044F0020488
:10246000761C30782E2816D116F8010F44F004049B
:102470002A280DD06FF02F023078A0F13003092BFD
:1024800009D807EB870302EB4303C718761CF3E771
:1024900059F8047B761C30786C280FD006DC4C2869
:1024A00017D068280DD06A2814D104E0742810D001
:1024B0007A280FD10DE044F400140AE044F48014AB
:1024C00001E044F440147278824202D104F5801491
:1024D000761C761C307866280BD013DC582877D011
:1024E00009DC002875D04528F6D04628F4D04728C6
:1024F0001AD19DE118E0632835D0642879D0652889
:1025000012D195E1702873D008DC6728F1D06928D2
:102510006FD06E280DD06F2806D1B5E073282CD06F
:10252000752875D0782874D05A46179990476D1C35
:1025300075E1C4F30250022809D003280DD0D9F860
:10254000001004280DD00D6009F1040967E1D9F8E5
:102550000010EA17C1E90052F6E7D9F800100D8023
:10256000F2E70D70F0E719F8041B8DF80010002059
:102570008DF80100EA46012003E059F804AB4FF062
:10258000FF3061074FF0000102D40DE008F10101B6
:102590008846B9420FDA8045F8DB1AF8081000299E
:1025A000F4D108E008F1010188468142FADB1AF80B
:1025B00008100029F6D105985B46A0EB08072146D4
:1025C0003846179A00F094FA284400EB080507E013
:1025D0004DE029E10DE01AF8010B5A461799904792
:1025E000B8F10108F7D25B4621463846179A13E145
:1025F00042E00A220092C4F302524FF0000A022A7B
:1026000008D059F804CB032A4FEAEC710AD00DE048
:1026100029E02AE009F1070121F00702F2E802C1EE
:10262000914609E00FFA8CFC4FEAEC71042A03D1C1
:102630004FFA8CFC4FEAEC71002907DA0A460021B8
:10264000DCF1000C61EB02012D2202E0220504D531
:102650002B228DF80420012203E0E20701D0202282
:10266000F7E7904659E00A2102E010220DE0102120
:102670004FF0000A00910BE010224FF0000A44F0E6
:1026800004040827009203E008224FF0000A009299
:10269000C4F30252022A05D059F804CB0021032AC0
:1026A00008D009E009F1070121F00702F2E802C1B0
:1026B000914605E01FFA8CFC042A01D10CF0FF0CB6
:1026C0004FF00008220728D5702806D0009B83F021
:1026D000100353EA0A0305D00EE040228DF80420CF
:1026E000012208E05CEA010206D030228DF80420C5
:1026F0008DF8050002229046009B83F0080353EA00
:102700000A030AD15CEA010201D1620705D5302231
:102710008DF804204FF001087F1E582804D034A003
:1027200003900EA802900DE036A0F9E753466046EC
:10273000009AFDF787FF84460398825C0298401E4A
:10274000029002705CEA0100F0D1029806A9081A12
:1027500000F1200A600702D524F4803400E001274C
:10276000574502DDA7EB0A0000E0002000EB0A015C
:10277000009005984144401A0590E00306D45B465A
:102780002146179A059800F0B3F90544002706E0A2
:1027900001A85A46C05D179990476D1C7F1C47459C
:1027A000F6DBE0030CD55B462146179A059800F04E
:1027B0009FF9054404E030205A46179990476D1C54
:1027C0000099481E00900029F5DC08E00298029963
:1027D0005A460078491C0291179990476D1CBAF12E
:1027E0000001AAF1010AF1DC65E1000009280100FD
:1027F0003031323334353637383961626364656677
:102800000000000030313233343536373839414238
:10281000434445460000000000F058F90544761C8A
:10282000307800287FF4ECAD19B02846BDE8F08F71
:10283000620700D4062709F1070222F0070CFCE822
:102840000223E14603F000485FEA080C02D00FF2D1
:10285000702C0DE05FEA045C02D50FF2682C07E0F3
:102860005FEAC47C02D00FF2602C01E0AFF2700C82
:102870004FF0FF3823F00043CDF850C065280CD04E
:1028800006DC452809D046281DD047283DD13DE02B
:10289000662818D067287ED138E00021112F01DB8F
:1028A000112000E0781CCDE9000106A90EA8FFF771
:1028B000DDFCDDE90F010E9A03910021009207F182
:1028C000010A04914DE04FF000400097CDE901105E
:1028D00006A90EA8FFF7CAFCDDE90F0203920E9BC2
:1028E00011990022DDF80CA00093049211B9791C13
:1028F00000EB010AB7EB0A0004D4C0F1FF3007F186
:10290000010A0490AAEB0700019044E0012F00DACD
:1029100001270021112F01DD112000E03846CDE90B
:10292000000106A90EA8FFF7A1FCDDE90F010E9A30
:102930000391002104910092BA4621070CD4039917
:10294000514500DA8A46BAF1010F05DD009AAAF175
:102950000101515C302908D0B84202DA10F1040FAD
:1029600006DA0121CDE9011015E0AAF10101E9E73C
:10297000002805DC049901440491AAEB000102E05F
:10298000411C514500DD8A460499401A401C0190C3
:102990004FF000400290200704D40198504501DB1D
:1029A000CDF8048000208DF84F0002980DF14F07FC
:1029B000B0F1004F25D02B200E9002984FF0020866
:1029C00000280CDA404202902D200E9007E00A21E8
:1029D0000298FDF721FE3031029007F8011DB8F191
:1029E0000001A8F10108F2DC02980028EFD1791E5D
:1029F0000E980870307800F0200040F0450007F88D
:102A0000020D12A8C01B00F107081498007800B14D
:102A1000012000EB0A01019801EBE07105984144A7
:102A2000401A401E0590E00306D45B462146179AE3
:102A3000059800F05DF805441498007818B15A46DE
:102A4000179990476D1CE00324D55B462146179AE1
:102A5000059800F04DF805441CE00498002807DBB9
:102A6000DDE90301884203DD0098405C179901E02D
:102A7000179930205A469047049805F10105401CEB
:102A800004900198401E019004D12E205A461799B7
:102A900090476D1CBAF10001AAF1010ADDDC05E0E6
:102AA00017F8010B5A46179990476D1CB8F10001B1
:102AB000A8F10108F4DC5B462146179A0598ABE6BD
:102AC0002D0000002B000000200000002DE9F04147
:102AD000044600251E461746880404D405E03946FE
:102AE0002020B0476D1C641EF9D52846BDE8F08152
:102AF0002DE9F041044600251E469046C80301D545
:102B0000302700E02027880404D505E041463846F8
:102B1000B0476D1C641EF9D52846BDE8F0810A68EF
:102B2000531C0B60107070472DE9F04D0546DFF81F
:102B3000388221F000408D4F82B00C46404520DBAA
:102B4000A0EB080129430BD08949884201DC10D150
:102B50007DB102B028462146BDE8F04DFFF75EBBCF
:102B6000002CC7BF002001468248394602B0BDE8AC
:102B7000F08D0120FFF774FB02B0BDE8F04DFFF7C8
:102B800050BB7D49884244DA7C498142A1BF7948E3
:102B90007B4902B0BDE8F08D2A462346104619460F
:102BA000FDF7E4FB8346024676480E460B460621B7
:102BB0007844FFF767FA5A463346FDF7D7FB0746D6
:102BC00071488A465A46334604217844FFF75AFA38
:102BD0005A463346FDF7CAFB00224346FDF71FFB6A
:102BE00002460B4638465146FDF732FC2A4623463C
:102BF000FDF7BCFB654A664BFDF7B5FB2A4623464D
:102C0000FDF7B1FB02B05B4ABDE8F04D5C4BFDF750
:102C1000AABB002C4FF000024BDA4646434628463A
:102C20002146FDF7FCFA4FF0FF32FDF780FC044629
:102C3000024658480D460B4606217844FFF722FA13
:102C400022462B46FDF792FB804653488A46224691
:102C50002B4604217844FFF715FA22462B46FDF750
:102C600085FB00223346FDF7DAFA06468B462046FE
:102C7000294600F059FD04460D4632465B46404663
:102C80005146FDF7E5FB22462B46FDF76FFB3F4A19
:102C90003F4BFDF765FB22462B46FDF7C0FA0122AC
:102CA000FDF745FC02B03B46BDE8F04D314AFDF76B
:102CB0005ABB2D4B28462146FDF755FB4FF0FF32FE
:102CC000FDF735FC05460E4600F02EFD00270C46AC
:102CD00080463A460B46FDF7A2FA82468B463A46B4
:102CE000234610461946FDF741FB2A463346FDF7B9
:102CF0003AFB52465B46FDF7ABFB824627488B46C4
:102D00002A46334606217844FFF7BCF92A46334663
:102D1000FDF72CFBCDE9000121482A46334604216A
:102D20007844FFF7AFF92A463346FDF71FFB002230
:102D30000D4BFDF774FA02460B46DDE90001FDF785
:102D400087FB42462346FDF711FB52465B46FDF7E3
:102D500066FA3A462346FDF762FA02B00122BDE860
:102D6000F04DFDF7E4BB00000000F03FFB210940FF
:102D70000000F07F182D44540000E03F0000603C4C
:102D8000FB21F93FF40E00000A0F0000075C14332A
:102D900026A6913C6A0E0000800E00009E0D0000E9
:102DA000B40D00002DE9F84F04460D4621F0004017
:102DB00000917349814211DC7249884201DC06D1DD
:102DC0002CB120462946BDE8F84FFFF727BA6E48D8
:102DD000002DCCBF6D496E49BDE8F88F6D49814229
:102DE00011DD6D498142D8BF4FF0FF366DDD2046C1
:102DF0002946FEF7E1FE042808BFFFF719FA20462E
:102E00002946BDE8F88F6549654F25F000458142A8
:102E100033DD6449814219DD002632464FF080439C
:102E200020462946FDF7FBF980468A4601222046C6
:102E30002946FDF77CFB00223B46FDF791FA42460E
:102E40005346FDF705FB04460D463EE001260022F1
:102E5000BA463B4620462946FDF7E1F980460F4633
:102E60000022534620462946FDF77AFA42463B4661
:102E7000FDF7EEFA04460D4627E04B4981421BDD83
:102E8000DFF828A102260022534620462946FDF7F6
:102E90006DFA00223B46FDF7C2F980460F4600223C
:102EA000534620462946FDF75BFA42463B46FDF76E
:102EB000CFFA04460D4608E0032622462B460020A2
:102EC0003B49FDF7C5FA04460D4622462B461046FF
:102ED0001946FDF74BFA8B46824602460B46FDF734
:102EE00045FA07460246334888460B460621784491
:102EF000FFF7C8F852465B46FDF738FA82462E487F
:102F00008B463A46434605217844FFF7BBF83A46DC
:102F10004346FDF72BFA02460B46002E5046594613
:102F20000CDAFDF77CF922462B46FDF71FFA01B0BB
:102F300022462B46BDE8F04FFDF715BAFDF76FF9B5
:102F400022462B46FDF712FA1C4A7A4402EBC603CE
:102F5000D3E90023FDF704FA22462B46FDF700FAD9
:102F6000174A7A4402EBC603D3E90023FDF7FBF9C5
:102F7000009A002AB8BF81F00041BDE8F88F000038
:102F8000000010440000F07F182D4454FB21F93F4D
:102F9000FB21F9BF0000DC3F0000203E0000F33FB2
:102FA0000000F03F0000E63F008003400000F83FD3
:102FB0000000F0BF6E0C00002C0C0000CA0B0000DB
:102FC000920B000000B5244B21F0004287B09A42DA
:102FD000DCBF0022134629DD204B9A4208D140B9BC
:102FE0004FF00100FFF73CF9FFF71BF907B000BDF8
:102FF00003DBFFF713F907B000BD02AAFEF700FEDE
:1030000010F0030104BF0DF1080C9CE80F000DD077
:10301000012001290ED0022914D00DF1080C0090D6
:103020009CE80F00FFF784F807B000BDFEF7ACFF87
:1030300007B000BD0DF1080C00909CE80F00FFF7F1
:1030400077F805E00DF1080C9CE80F00FEF79CFFF7
:1030500007B081F0004100BDFB21E93F0000F07F97
:103060002DE9F04FFE4893B08046806DD8F85C1093
:10307000D8E90E4281F0004181468A4682F000453F
:103080004A465346FDF772F906460F4622462B463E
:1030900010461946FDF76AF932463B46FDF7BFF880
:1030A00000F042FBD8F828B007460E464FEA4B0026
:1030B000FDF75DFA3A463346FDF758F907910A9055
:1030C000D8F82C004043FDF752FA049006910BFB10
:1030D0000BF0FDF74CFA83463A4633460291104610
:1030E0001946FDF743F95A46CDE90001029BFDF769
:1030F00096F8069B049AFDF733F9079B0A9AFDF7A9
:10310000A7F9FFF711FD06460F4600221346204699
:103110002946FDF769FA0AD222462B46484651460F
:10312000FDF796F9FFF73EFE21F0004114E0002282
:10313000134620462946FDF73FFA10D222462B4679
:1031400048465146FDF784F9FFF72CFE21F0004177
:10315000C44AC54BFDF707F932463B4603E0324609
:103160003B46C048C149FDF7FBF80222FDF7DFF9F5
:10317000BB4EC8E91E01D6E90A7407FB04F0400003
:103180004042FDF7F4F90546884604FB04F0FDF7DC
:10319000EEF90446894607FB07F0FDF7E8F9024619
:1031A0000B46DDE90001FDF7DBF822464B46FDF753
:1031B000D7F82A464346FDF74BF9FFF7B5FCA94A75
:1031C000AA4BFDF7D0F80222FDF7B1F9D6E91E238C
:1031D000FDF725F806F1800ACAE90001D6E91801D1
:1031E00081F000410B91D6E9104282F00045834600
:1031F00002460B46FDF7BAF80746884622462B469C
:1032000010461946FDF7B2F83A464346FDF707F86F
:1032100000F08AFA0746B06A099089464000FDF737
:10322000A6F93A464B46FDF7A1F807910A90F06AD5
:103230004043FDF79CF9CDE90D1009984043FDF797
:1032400096F980460E463A464B4610461946FDF71B
:103250008DF842463346CDE90001FCF7E0FFDDE999
:103260000D32FDF77DF8079B0A9AFDF7F1F8FFF79D
:103270005BFC06460F460022134620462946FDF712
:103280009BF90ED222462B4658460B99FDF7E0F8E3
:10329000FFF788FD21F00041724A734BFDF763F898
:1032A00010E00022134620462946FDF79DF90CD276
:1032B00022462B4658460B99FDF7CAF8FFF772FDD8
:1032C00021F0004132463B4603E032463B4665482A
:1032D0006649FDF745F80222FDF729F9DFF88081FC
:1032E000CAE90201D8E90A7407FB04F04000404231
:1032F000FDF73DF90646894604FB04F0FDF737F972
:1033000004460D4607FB07F0FDF731F902460B4670
:10331000DDE90001FDF724F822462B46FDF720F8F1
:1033200032464B46FDF794F8FFF7FEFB4D4A4F4BF4
:10333000FDF719F80222FDF7FAF85446D146D4E910
:103340000223FCF76CFFC4E90401D8E91A01D8E9AB
:10335000124281F0004182468B4682F0004552467F
:103360005B46FDF703F807460E4622462B461046FD
:103370001946FCF7FBFF3A463346FCF750FF00F0D6
:10338000D3F90646D8F8280009900F464000FDF70B
:10339000EEF832463B46FCF7E9FF0C910E90D8F868
:1033A0002C004043FDF7E3F8CDE90A0109984043BA
:1033B000FDF7DDF8804632463B4609911046194636
:1033C000FCF7D4FF4246CDE90001099BFCF727FF3B
:1033D000DDE90A23FCF7C4FF0C9B0E9AFDF738F8D1
:1033E000FFF7A2FB06460F46002213462046294659
:1033F000FDF7E2F80ED222462B4650465946FDF71D
:1034000027F8FFF7CFFC21F00041164A164BFCF7D6
:10341000AAFF10E00022134620462946FDF7E4F8F3
:103420000CD222462B4650465946FDF711F8FFF7BD
:10343000B9FC21F0004132463B4603E032463B46B0
:1034400008480A49FCF78CFF0222FDF770F8DFF804
:103450001080C9E90601D8E90A7407FB04F007E007
:10346000180000204AD8124DFB210940FB21F93FEA
:1034700040004042FDF77BF806468A4604FB04F014
:10348000FDF775F804460D4607FB07F0FDF76FF8EA
:1034900002460B46DDE90001FCF762FF22462B469F
:1034A000FCF75EFF32465346FCF7D2FFFFF73CFBCA
:1034B000634A644BFCF757FF0222FDF738F84C468D
:1034C000D4E90623FCF7ABFEC4E90801D8E91C01E6
:1034D000D8E9144281F0004182468B4682F00045D3
:1034E00052465B46FCF742FF07460E4622462B46F5
:1034F00010461946FCF73AFF3A463346FCF78FFE72
:1035000000F012F90646D8F828000B900F4640004C
:10351000FDF72DF832463B46FCF728FF039110904B
:10352000D8F82C004043FDF722F8CDE90D100B9898
:103530004043FDF71CF8804632463B460C9110464E
:103540001946FCF713FF4246CDE900010C9BFCF73E
:1035500066FEDDE90D32FCF703FF039B109AFCF7D2
:1035600077FFFFF7E1FA06460F4600221346204692
:103570002946FDF721F80ED222462B4650465946E1
:10358000FCF766FFFFF70EFC21F000412C4A2E4BA2
:10359000FCF7E9FE10E00022134620462946FDF71D
:1035A00023F80CD222462B4650465946FCF750FFD2
:1035B000FFF7F8FB21F0004132463B4603E032467C
:1035C0003B461F481F49FCF7CBFE0222FCF7AFFF2A
:1035D000C9E90A011D48D0E90A4504FB05F040008D
:1035E0004042FCF7C4FF06460F4605FB05F0FCF71A
:1035F000BEFF80460D4604FB04F0FCF7B8FF024610
:103600000B46DDE90001FCF7ABFE42462B46FCF71A
:10361000A7FE3B463246FCF71BFFFFF785FA084A38
:10362000084BFCF7A0FE0222FCF781FF4C46D4E9D0
:103630000A23FCF7F4FDC4E90C0113B0BDE8F08FD8
:103640004AD8124DFB21F93FFB2109401800002008
:10365000FDF7A6FAFEF798F9FEF7D6F8FEF73AF965
:10366000FEF754F9FEF7F6F8FEF718F9FEF76AF9D7
:103670000448FDF741FE4FF4FA7000BFFDF774F9FE
:103680000A20FBE72401002000B5254B21F0004271
:1036900087B09A4203DC0022134600922BE0214BB4
:1036A0009A4208D140B94FF00100FEF7D9FDFEF76C
:1036B000B8FD07B000BD03DBFEF7B0FD07B000BDED
:1036C00002AAFEF79DFA10F003014FF001000DD0A1
:1036D000012914D002291AD00DF1080C9CE80F0022
:1036E000FEF752FC07B081F0004100BD0DF1080C5F
:1036F00000909CE80F00FEF71BFD07B000BD0DF128
:10370000080C9CE80F00FEF73FFC07B000BD0DF170
:10371000080C00909CE80F00FEF70AFDE2E70000AD
:10372000FB21E93F0000F07F2DE9F04106460F46FE
:10373000FDF76EF8041E0D4618BF0120284320F047
:103740000040C0F17F6000F1E040C00F0ED0301C9F
:1037500018BF0120384320F00040C0F17F6000F125
:10376000E040C00F04BF0120FEF77AFD2046294645
:10377000BDE8F0812DE9FC5FC24CDFF804934FF007
:10378000FF3AA069FCF7EAFE6169FCF716FDFCF759
:10379000FFFED4E90C23FCF727FFA0697ED8FCF7D5
:1037A000DDFE6169FCF709FDFCF7F2FE06460F46F7
:1037B000D4E90C01B44AB54BFCF7D8FD32463B4680
:1037C000FCF746FE0F460646FFF7FCFB00224B4681
:1037D000FCF7C9FD80460D46606AFCF7C8FE42460C
:1037E0002B46FCF7C3FD5246FCF7A1FE8346019130
:1037F000206AFCF7BCFE81460D4630463946FFF78D
:1038000043FF32463B46FCF7AEFD9F4A9F4BFCF719
:103810001FFE8246E06988460090216A401AFCF744
:10382000A6FE52464346FCF7A1FD4A462B46FCF74E
:10383000F6FC05468A460098FCF799FE80468946C4
:1038400030463946FFF720FF32463B46FCF78BFDFA
:103850008D4A8E4BFCF7FCFD0F460646D4E9071057
:10386000401AFCF784FE32463B46FCF77FFD424699
:103870004B46FCF7D4FC064689462068FCF777FEE9
:10388000884607465A46019BFCF7C9FC58340B464C
:103890000246A4E88C0164E81A0100E02AE0C4E9C9
:1038A0001C786068FCF763FE8AF000482A464346AD
:1038B000FCF75CFDC4E90E01A068FCF758FE89F036
:1038C000004732463B46FCF751FDC4E91001E06871
:1038D000FCF74DFE0B46024641462846FCF746FDE6
:1038E000C4E912012069FCF742FE02460B4630464D
:1038F0003946BEE0FCF732FE6169FCF75EFCFCF77E
:1039000047FED4E90C23FCF757FE7DD2A069FCF7F3
:103910002EFED4E90C23FCF767FE75D8A069FCF7EE
:103920001DFE6169FCF749FCFCF732FED4E90C236B
:1039300006460F46FCF717FD534A544BFCF716FD9D
:1039400032463B46FCF784FD0F460646FFF73AFB3E
:1039500000224B46FCF707FD80460D46606AFCF7E7
:1039600006FE42462B46FCF701FD5246FCF7DFFD02
:1039700083460191206AFCF7FAFD054688463046E9
:103980003946FFF781FE32463B46FCF7ECFC3E4AE7
:103990003E4BFCF75DFD8246E06989460090216A56
:1039A000401AFCF7E4FD52464B46FCF7DFFC2A4682
:1039B0004346FCF734FC054689460098FCF7D7FDE2
:1039C00080468A4630463946FFF75EFE32463B4621
:1039D000FCF7C9FC2C4A2D4BFCF73AFD06460F4676
:1039E000D4E90710401AFCF7C2FD3B463246FCF70B
:1039F000BDFC42465346FCF712FC0646884620684A
:103A0000FCF7B5FD8A4600E037E0C4E91601074639
:103A10005A46019BFCF703FC60340B460246A4E8BF
:103A20008C0464E81C016068FCF7A1FD88F0004785
:103A300032463B46FCF79AFCC4E90E01A068FCF74D
:103A400096FD89F000482A464346FCF78FFCC4E9FE
:103A50001001E068FCF78BFD32463B46FCF786FC24
:103A6000C4E912012069FCF782FD0B46024641467B
:103A70002846FCF77BFCC4E91401BDE8FC9F00006C
:103A80000000F03F180000204AD8124DFB211940D9
:103A900000000000000000000102030406070809FE
:103AA0000000000001020304555555555555C53F0A
:103AB0007D6FEB0312D6D4BF5544880E55C1C93F64
:103AC0003B8F68B52882A4BF88B20175E0EF493FFB
:103AD00009F7FD0DE13D023F4B2D8A1C273A03C03B
:103AE000C88A599CE52A004059018D1B6C06E6BF27
:103AF00082922EB1C5B8B33F4FBB610567ACDD3FC5
:103B0000182D4454FB21E93F9BF681D20B73EF3F04
:103B1000182D4454FB21F93FE2652F227F2B7A3C7C
:103B2000075C143326A6813CBDCBF07A8807703C35
:103B3000075C143326A6913CC4EB98999999C9BFA8
:103B4000711623FEC671BCBF6D9A74AFF2B0B3BFDD
:103B50009AFDDE522DDEADBF2F6C6A2C44B4A2BF9D
:103B60000D5555555555D53FFF8300922449C23F09
:103B70006E204CC5CD45B73F513DD0A0660DB13F3D
:103B8000EB0D76244B7BA93F11DA22E33AAD903F4F
:103B90004C5555555555A53F7751C1166CC156BF6B
:103BA0009015CB19A001FA3EAD529C804F7E92BE7B
:103BB000C4B1B4BD9EEE213ED43888BEE9FAA8BD9A
:103BC00000004054FB21F93F3163621A61B4D03DDB
:103BD0000000601A61B4D03D7370032E8A19A33BB4
:103BE0000000002E8A19A33BC14920259A837B3906
:103BF00000000000000000006E83F9A22915444E69
:103C0000D15727FCC0DD34F5999562DB4190433CE8
:103C1000AB6351FE61C5BBDE3A6E24B7E0D24D42C4
:103C2000EA2E49061C92D1091CEB1DFE3EA729B1C4
:103C3000F53582E88444BB2E26709CE9417E5FB452
:103C400039D69139F43953838B5F849C3B28F9BD75
:103C5000FF97F81F0F9805DE8B112FEF1F6D0A5A83
:103C6000CF7E366DB709CB27663F464F2DEA5F9E64
:103C7000C7BA27757BF1E5EBF739073DEA92528A1F
:103C8000B15FFB6B085D8D1FA6F810111111813F0C
:103C9000D561C119A0012ABF7DFEB157E31DC73E02
:103CA000EB9C2B8AE6E55ABE7CD5CF5A3AD9E53D46
:103CB000D03C000800000020D40000004022000892
:103CC000A43D0008D4000020AC05000050220008EC
:103CD00002000000010000001000000000000000D1
:103CE0000024F40000000000B0FFFFFF010000000E
:103CF0000100000001000000010000000000003F82
:103D00000100000028000000E2FFFFFF1E0000008D
:103D10005000000050000000000000000000000003
:103D20000000000000000000000000000000000093
:103D30000000000000000000000000000000000083
:103D400000000000000054C000000000000054C04B
:103D500000000000000054C000000000000054C03B
:103D60000000000000000000000000000000000053
:103D70000000000000000000000000000000000043
:103D80000000000000000000000000000000000033
:103D90000000000000000000000000000000000023
:043DA000000000001F
:0400000508000131BD
:00000001FF
